:1000000000800020BD010000954000005940000024
:10001000594000005940000059400000594000007C
:100020005940000059400000594000009540000030
:1000300095400000594000009540000049400000F4
:10004000954000009540000095400000954000005C
:10005000954000009540000095400000954000004C
:10006000954000009540000095400000954000003C
:10007000954000009540000095400000954000002C
:10008000954000009540000095400000954000001C
:10009000954000009540000095400000954000000C
:1000A00095400000954000009540000095400000FC
:1000B00095400000954000009540000095400000EC
:1000C00095400000954000009540000095400000DC
:1000D00095400000954000009540000095400000CC
:1000E00095400000954000009540000095400000BC
:1000F000954000004947000095400000AD4E0000CB
:1001000095400000295400009540000095400000F3
:10011000954000009540000095400000954000008B
:10012000954000009540000095400000954000007B
:10013000954000009540000095400000954000006B
:10014000954000009540000095400000954000005B
:10015000954000009540000095400000954000004B
:1001600095400000193100009540000095400000C6
:10017000954000009540000095400000954000002B
:10018000954000009540000095400000954000001B
:10019000954000009540000095400000954000000B
:1001A00095400000954000009540000095400000FB
:1001B000954000009540000095400000574B4CF2E0
:1001C000205210B51A804DF628121A8000BF00BFC9
:1001D00003F064FF524B4FF010621A60514A9A606C
:1001E000514ADA60A3F53043203B1A6812F480725A
:1001F00004D14E490A604FF4A8521A604C4B1A7849
:10020000110703D51A7842F008021A70494B4A4C7C
:100210004A482A221A704A4A00239918A14203D256
:10022000195899500433F8E7464B474900228B424E
:1002300002D243F8042BFAE74448454900235A58B0
:100240001A500433B3F5DE7FF9D1424B424A802184
:1002500003F8011B9342FBD1404B3C4A1A60404BD0
:100260008A221A70A3F5805324225A70A0221A7091
:100270009A799207FCD59A79D406FCD4394A9379B5
:1002800003F00C03082B374BF9D103221A714022DB
:100290005A719A799006FCD5324A9179314B4906C8
:1002A000FBD5314A314911600221516020221A7078
:1002B0009A7902F00C020C2AFAD12D4B2D4A1A60C1
:1002C0002D4B2E4A1A6000225A60072243F8042C54
:1002D0002B4AC3F80C2D62B602F09AFD134B1B6833
:1002E000DA0705D5274802F0D7FC274B274A1A60C2
:1002F000274B1B785B0609D5234C244A236893427D
:1003000004D1204802F0C8FC0023236007F08AFCD7
:1003100003F0CAFE03F0B4FDFEE700BF0E20054067
:1003200030800440823F04000100002B14D00340C1
:1003300002D0074000E007407490FF1FA48B00002C
:100340006087FF1F7490FF1F5898FF1F0082FF1FD8
:100350000000000000E400E05FE400E008ED00E0E1
:100360000050064000400640448004400000030165
:1003700004800440C010050014E000E0FF76010096
:10038000000020201A0E5B581CE00340A5C3945ABD
:1003900000F00740FFFFFFFFFFFFFFFFFFFFFFFF32
:1003A000FFFFFFFFFFFFFFFFFFFFFFFFFFFFFFFF5D
:1003B000FFFFFFFFFFFFFFFFFFFFFFFFFFFFFFFF4D
:1003C000FFFFFFFFFFFFFFFFFFFFFFFFFFFFFFFF3D
:1003D000FFFFFFFFFFFFFFFFFFFFFFFFFFFFFFFF2D
:1003E000FFFFFFFFFFFFFFFFFFFFFFFFFFFFFFFF1D
:1003F000FFFFFFFFFFFFFFFFFFFFFFFFFFFFFFFF0D
:10040000FFFFFFFFFFFFFFFFFFFFFFFFDEF9FFFF23
:1004100010B5054C237833B9044B13B10448AFF33E
:1004200000800123237010BD7490FF1F00000000A6
:10043000A48B000008B5064B1BB106480649AFF374
:1004400000800648036813B1054B03B1984708BD07
:1004500000000000A48B00007890FF1F7490FF1F25
:100460000000000030B583B00D46144681B2009301
:1004700003482A46234602F08BFB03B030BD00BF81
:100480009090FF1F70B582B00024074E254600955E
:100490003046A1B22A462B4602F07AFB0134752C75
:1004A000F5D102B070BD00BF9090FF1F08B50248A3
:1004B00002F0B0FA08BD00BF9090FF1F10B582B0E7
:1004C0000446094889B202F08BFB034600220092E1
:1004D0002046C3F30741C3F30722DBB200F09CFCC4
:1004E000204602B010BD00BF9090FF1F10B584B031
:1004F000234B1B6801930199224B1B68224A126807
:100500008A1A93420AD91E4A12680292029A9342A8
:1005100004D20D20012102F0CFFB03E00D200021C9
:1005200002F0CAFB03F052FA002826DD03F002FABB
:100530002E2806D1124B1B680393039A124B1A60A4
:100540001BE03F2819D1114C2046652103F094FB94
:1005500023681B6820462C2198472046002103F081
:100560008BFB23681B6820462C21984720460021DE
:1005700003F082FB204603F033FB04B010BD00BF44
:100580003C95FF1F7087FF1F5C94FF1F3896FF1F6D
:10059000F0B583B0124B1B680093009A114B1B6897
:1005A000D31A114A12689A4217D20D4B1B68019355
:1005B000019A0C4B1A6000240C4F4FF07E560C4DE4
:1005C000E059314607F00AF838516059314607F0D2
:1005D00003F828510434302CF2D103B0F0BD00BF31
:1005E0003C95FF1FC094FF1F6887FF1F4C93FF1FA0
:1005F0007C93FF1F2DE9F84F35490B1F2C3100224A
:1006000043F8042F8B42FBD1324B1B68002B53DD88
:100610004FF0000ADFF8C4B00BF10B09DFF8B4802B
:100620001DE015F8010F02F04FFC266807F08AF86C
:100630000746D8F8000007F085F80146384607F06D
:1006400089F90146304606F0C9FF44F8040B4D45D0
:10065000E7D10AF1010AD8F8003053452CDD0BF13F
:10066000FF351B4CDDE754F80B50284654F80810B2
:1006700007F05AFA08B144F808502846E15907F043
:1006800071FA00B1E55154F808602846314606F089
:10069000A3FF0546E059314606F09EFF0146284675
:1006A00007F058F9494606F099FF4AF80400043467
:1006B000302CD8D1BDE8F88F0024DFF814B0DFF873
:1006C0002080054FDFF81CA04FF00009CBE700BFEA
:1006D000BC93FF1F6487FF1F7C93FF1F7887FF1F5A
:1006E0004C93FF1F6094FF1F2DE9F047002425461F
:1006F0000E4F0F4EDFF83C80DFF83CA0DFF83C9057
:10070000E059314607F02EFA40B1284607F01AF8B2
:10071000494607F01FF948F8040001E044F808A032
:10072000013504340C2DEBD1BDE8F0876094FF1F38
:100730009A99193F9094FF1F000080BF000030413C
:100740002DE9F04383B0144E0024DFF85480134F9A
:100750004FF0020956F8045F2846414607F002FAB6
:1007600080B1284606F0AEFB02460B46CDF800905D
:10077000384603F08DFA0B2C07D03B681B683846CF
:100780000921984701340C2CE4D1044803F028FADD
:1007900003B0BDE8F08300BF8C94FF1F3896FF1FA5
:1007A000000080BF10B582B0084802F0DDF8084CA8
:1007B000084BDA6800920ECB204601F02DFB204654
:1007C000012101F009FB02B010BD00BF9090FF1F96
:1007D000C494FF1FAC93FF1F10B50D20012102F040
:1007E0008FFAFFF7DFFF0023044C05480549064A4E
:1007F00018515A500433302BFAD110BD4C93FF1FBF
:10080000002474497C93FF1F000080BF2DE9F04F46
:1008100087B03D4BA3F1040B4FF07E5700265BF8E9
:10082000044F2046394907F075F9002866D1204663
:10083000374906F0DBFF8246364B18684FF07C5193
:1008400006F0D4FF05465046294606F0C5FE07F0DF
:1008500093F904465046294606F0C0FE07F08CF98D
:10086000054684424ADC742C45D8204606F06AFFCF
:10087000514606F0B1FE8046314607F073F910B9D3
:1008800008F1004000E04046224B196807F062F88A
:10089000014606F0A3FE0146384606F09DFE80465E
:1008A000314607F041F930B94046394607F05AF968
:1008B00010B1B84600E0B04602A82146FFF7FEFDA1
:1008C000154BCDF80480DA6800920ECB02A800F038
:1008D000F7FB02A800F0DCFB814602A800F0E0FB79
:1008E000804602A800F0E4FB00900C48A1B24A4602
:1008F000434602F04DF90134A542B4DA084B9B455A
:100900008DD107B0BDE8F08F9094FF1F000080BF2D
:100910000000EA426C87FF1F4C94FF1F9090FF1F5E
:10092000BC94FF1F08B50448002100F09BFFFFF7AF
:100930006DFFFFF7BBFD08BDEC93FF1F00B583B053
:10094000FFF7D4FDFFF724FEFFF754FEFFF7CCFEC0
:100950000B4B1B68009300990A4B1B680A4A1268EC
:100960008A1A934207D9064A12680192019A934261
:1009700001D2FFF7E5FEFFF7D5FF03B05DF804FBFA
:100980003C95FF1F7087FF1F5C94FF1F30B589B037
:10099000244B1A6807920799234A11601B68069333
:1009A000069A224B1A60224C04F52A75204600F064
:1009B00059F84434AC42F9D11E4C20467521052229
:1009C000522302F0CFF820461B491C4A07F01AF9BF
:1009D0001B4C20460021752201F0DAF9194B1B78D7
:1009E000134A00920A220192174A0292174A03926E
:1009F000174A0492174A059217487521224600F0BB
:100A0000E5FE012400941548A0216422032300F090
:100A100003FA0094124814216422134600F0FCF9F2
:100A200009B030BD3C95FF1FC094FF1F5C94FF1FB1
:100A3000A490FF1F9090FF1F492900006087FF1FAF
:100A4000C494FF1F7487FF1F65040000BD040000ED
:100A5000AD04000085040000EC93FF1FAC93FF1F62
:100A60004C94FF1F10B50446143000F0D1F9002358
:100A700084F83130204610BD2DE9F04704468E46FB
:100A800090469A469DF82070DDF82490012380F866
:100A90003130002380F830309DF8383080F8323023
:100AA0002160C0F810900AAD07CD6061A161E261DC
:100AB0002B88238484F80C8084F82470BEF80E50B0
:100AC00057B9C4F808A0284606F03CFE0146504637
:100AD00006F040FF606003E0012F08BFC4F804A0E7
:100AE00048464FF07C5106F081FE0646284606F047
:100AF00029FE0146304606F02DFF05462064002001
:100B0000294606F069FD0646A06328464FF07E514F
:100B100006F064FDE063B8F1000F01D1334600E058
:100B2000034663630023A362BDE8F087F0B589B094
:100B300006468C4696461F461598F0629DF838305A
:100B400000930F9B019302AC10AD95E80F0084E871
:100B50000F009DF8503006933046614672463B4682
:100B6000FFF78AFF09B0F0BD38B50446456B08466B
:100B7000616806F03BFE237B13B94FF07E5100E025
:100B80000B4906F033FE0146284606F027FD0546D0
:100B90006063E16B06F0E6FF20B92846A16B06F022
:100BA000C3FF18B1002084F8310038BD012038BDE2
:100BB000000080BF38B5044690F830304BBB037B53
:100BC000A3B9006C4FF07A5106F010FE01464FF0C9
:100BD0007E5006F001FD01464FF00105606B06F006
:100BE000B7FF08B94FF00005E8B238BD006C4FF010
:100BF0007A5106F0FBFD002106F0F0FC01464FF0B3
:100C00000105606B06F09AFF08B94FF00005E8B2E5
:100C100038BD002038BD00BF012380F83030704758
:100C200090F83200022814BF00200120704700BF56
:100C30002DE9F04F89B005460F46904690F83230C6
:100C4000012B43D1446B20464FF07C5106F06CFFE2
:100C500028B12046214606F0C1FC81460DE0204621
:100C6000214606F0BBFC4FF07E5106F0B5FC014674
:100C70004FF07E5006F0B0FC814628680024A1B2F7
:100C800001F0ACF8064604A83146C047CDF8049000
:100C90002B6A009305F114030ECB04A800F010FAA0
:100CA00004A800F0F5F9834604A800F0F9F982469B
:100CB00004A800F0FDF90346304659465246B847AD
:100CC00001342868C389A342D9DA79E013F0FD0F13
:100CD00076D10368D88906F035FD696B06F086FD8C
:100CE000029028694FF07C5106F080FD064602987C
:100CF000314606F071FC06F03FFF0446029831468B
:100D000006F06CFC06F038FF0646844258DC4FF0D3
:100D1000000B002C3FDB2868C389A3423FDC3AE08C
:100D200009F1004000E04846296906F013FE01463B
:100D300006F054FC01464FF07E5006F04DFC814613
:100D4000594606F0F1FE40B948464FF07E5106F094
:100D500009FF18B14FF07E5900E0D94604A851466A
:100D6000C047CDF804902B6A009305F114030ECB15
:100D700004A800F0A5F904A800F08AF9814604A8A7
:100D800000F08EF9039004A800F092F90346504653
:100D90004946039AB8470134A642BADA10E0A1B234
:100DA00001F01CF88246204606F0CCFC029906F0C1
:100DB00013FC8146594606F0D5FE0028B3D1AFE7B3
:100DC00009B0BDE8F08F00BF90F83100704700BF58
:100DD000704700BF016082800023C380704700BF5E
:100DE00070B5064683887BB10024254630682044D0
:100DF000FFF7EAFF10B93068204470BD0135443474
:100E0000B388AB42F2DC01E0002070BD002070BD71
:100E1000002202734273704770B49DF80C40012C9D
:100E200010D1CD080C4CA4FB0564A4084FF4B47594
:100E300005FB141141600272437200230373012306
:100E4000437306E001704270837001230373002333
:100E5000437370BC704700BF176CC11601704270BD
:100E600083700123037300234373704770B4CD086C
:100E7000084CA4FB0564A4084FF4B47505FB1411D9
:100E8000416002724372002303730123437370BCF9
:100E9000704700BF176CC1162DE9F04182B00C46B7
:100EA000D1F8008048796428A8BF642006F04AFC85
:100EB0006C4906F09BFC06F085FEC5B2207900283F
:100EC00000F0C280684A88FB022308EB03044FEA63
:100ED000E873C3EB24244FF4B47303FB1484642835
:100EE000A8BF642006F02EFC5E4906F07FFC06F0E9
:100EF00043FEC0F1FF0005FB00F21212D1B25B4BC2
:100F000083FB04032344E017C0EB6313052B00F2BB
:100F10009E80DFE803F003122E48647ED2B2AA1A44
:100F200004FB02F4514F87FB04272744E417C4EB6A
:100F300067170F44FFB20E468AE0D2B2AE1A4B4B8F
:100F400083FB04202044E217C2EB6010C0EB0010CA
:100F5000A4EB8002C2F13C0202FB06F283FB0263B7
:100F60001344D217C2EB63120A440E462F46D5B281
:100F70006EE0D2B2AA1A3D4B83FB04602044E61710
:100F8000C6EB6010C0EB0010A4EB800404FB02F47D
:100F900083FB04062644E417C4EB66160E44F6B23F
:100FA0002F460D4654E0D2B2AE1A304B83FB0420DC
:100FB0002044E217C2EB6010C0EB0010A4EB8002EB
:100FC000C2F13C0202FB06F283FB02671744D21710
:100FD000C2EB67170F44FFB22E460D4638E0D2B27F
:100FE000AA1A224B83FB04602044E617C6EB60106C
:100FF000C0EB0010A4EB800404FB02F483FB0403A9
:101000002344E417C4EB63140C442E460F46E5B2A8
:101010001EE0D2B2AE1A154B83FB04202044E21727
:10102000C2EB6010C0EB0010A4EB8002C2F13C02E6
:1010300002FB06F283FB02061644D217C2EB6616C9
:101040000E44F6B20F4603E02E462F4600E0002580
:10105000002065F3070067F30F2066F3174002B026
:10106000BDE8F08133332340B7600BB689888888A8
:1010700010B50446011DFFF70FFF2070C0F30723D2
:101080006370C0F30740A0700123237310BD00BF3D
:1010900010B50446037B0BB9FFF7EAFF207810BDBB
:1010A00010B50446037B0BB9FFF7E2FF607810BD73
:1010B00010B50446037B0BB9FFF7DAFFA07810BD2B
:1010C00084B02DE9F843044609A880E80E000D9D80
:1010D0002846002106F01EFD00287DD12046FFF79E
:1010E000D7FF064609A8FFF7D3FF0746304606F0AC
:1010F00029FB0646384606F025FB294606F076FB16
:101100000146304606F06AFA0646002106F00CFD5C
:1011100030B93046324906F025FD18B1304802E0BA
:10112000002000E0304606F04DFDC7B22046FFF734
:10113000B7FF064609A8FFF7B3FF8046304606F022
:1011400001FB0646404606F0FDFA294606F04EFB36
:101150000146304606F042FA0646002106F0E4FC5D
:1011600030B930461E4906F0FDFC18B11C4802E0BB
:10117000002000E0304606F025FDC6B22046FFF70D
:1011800097FF804609A8FFF793FF8146404606F087
:10119000D9FA8046484606F0D5FA294606F026FBDD
:1011A0000146404606F01AFA0546002106F0BCFC4E
:1011B00030B928460A4906F0D5FC18B1084802E0C3
:1011C000002000E028462770667006F0FBFCA07047
:1011D0000123237300236373BDE8F84304B0704711
:1011E00000007F4384B02DE9F843044609A880E855
:1011F0000E000D9D2846002106F08CFC00287CD1B5
:101200002046FFF745FF064609A8FFF741FF0746BE
:10121000304606F097FA0646384606F093FA294615
:1012200006F0E4FA0146304606F0D8F906F0A4FCD0
:1012300007462046FFF734FF064609A8FFF730FFB0
:101240008046304606F07EFA0646404606F07AFAB8
:10125000294606F0CBFA0146304606F0BFF906F003
:101260008BFC06462046FFF723FF804609A8FFF7C0
:101270001FFF8146404606F065FA8046484606F064
:1012800061FA294606F0B2FA0146404606F0A6F990
:1012900006F072FC0546BE42ACBF30463846A84256
:1012A000B8BF2846FF2821DD06F04CFA0146154854
:1012B00006F050FB8046384606F044FA414606F0F8
:1012C00095FA06F059FC0746304606F03BFA4146CF
:1012D00006F08CFA06F050FC0646284606F032FA74
:1012E000414606F083FA06F047FC05462770667013
:1012F000A5700123237300236373BDE8F84304B092
:10130000704700BF00007F4384B02DE9F0470446DA
:1013100009A880E80E000D9D2846002106F0FAFB82
:10132000002840F0A8802046FFF7B2FE8046204605
:10133000FFF7B6FE07462046FFF7BAFE064609A8A5
:10134000FFF7A6FEFF282CD009A8FFF7A1FE8146D3
:1013500009A8FFF79DFE8246404606F0F3F9804655
:10136000484606F0EFF98146CAF1FF0006F0EAF9B7
:1013700082464FF07E50294606F02EF9014650462F
:1013800006F034FA0146484606F028F90146404680
:1013900006F02CFA3A4906F0DDFA06F013FC5FFA83
:1013A00080F809A8FFF77CFEFF282BD009A8FFF7DB
:1013B00077FE814609A8FFF773FE8246384606F09D
:1013C000C1F90746484606F0BDF98146CAF1FF005B
:1013D00006F0B8F982464FF07E50294606F0FCF838
:1013E0000146504606F002FA0146484606F0F6F875
:1013F0000146384606F0FAF9214906F0ABFA06F044
:10140000E1FBC7B209A8FFF753FEFF282BD009A8BC
:10141000FFF74EFE814609A8FFF74AFE8246304696
:1014200006F090F90646484606F08CF98146CAF166
:10143000FF0006F087F982464FF07E50294606F0FD
:10144000CBF80146504606F0D1F90146484606F071
:10145000C5F80146304606F0C9F9094906F07AFA9E
:1014600006F0B0FBC6B284F800806770A670012356
:10147000237300236373BDE8F04704B0704700BFD7
:1014800000007F4384B02DE9F041044607A880E8BE
:101490000E000B9D28464FF07E5106F03BFB90B1AD
:1014A00007A8FFF7F5FD064607A8FFF7F9FD054673
:1014B00007A8FFF7FDFD26706570A0700123237358
:1014C000002363738DE02846002106F023FB0028EB
:1014D00040F087802046FFF7DBFD07464FF07E5047
:1014E000294606F079F80646384606F02BF93146CB
:1014F00006F07CF9074607A8FFF7CAFD06F022F9B7
:10150000294606F073F90146384606F067F80746A3
:10151000002106F009FB30B93846344906F022FBB9
:1015200018B1324802E0002000E0384606F04AFBDD
:101530005FFA80F82046FFF7B3FD06F003F9014695
:10154000304606F053F9074607A8FFF7A9FD06F055
:10155000F9F8294606F04AF90146384606F03EF801
:101560000746002106F0E0FA30B938461F4906F078
:10157000F9FA18B11D4802E0002000E0384606F0F4
:1015800021FBC7B22046FFF793FD06F0DBF80146CA
:10159000304606F02BF9064607A8FFF789FD06F04E
:1015A000D1F8294606F022F90146304606F016F831
:1015B0000546002106F0B8FA30B928460B4906F076
:1015C000D1FA18B1094802E0002000E0284684F86A
:1015D0000080677006F0F6FAA070012323730023E1
:1015E0006373BDE8F04104B0704700BF00007F4363
:1015F00084B0F0B583B0044609AD85E80E002846F6
:10160000FFF746FD07462846FFF74AFD06462846EF
:10161000FFF74EFD27706670A0700123237300232F
:101620006373119B0193109B00930DAB0ECB20466F
:10163000FFF728FF03B0BDE8F04004B0704700BFDB
:10164000F8B50446117853788B422CBF1D460D46E1
:101650009078854238BF05468B4234BF1E460E4601
:10166000864228BF0646AE1BF6B2267116B9002385
:1016700023605FE0A9422ED1834217D2181A06F0E8
:1016800061F80746304606F05DF80146384606F038
:1016900061F9002105F0A2FF334906F0A7F83349AC
:1016A00005F09CFF06F068FA206043E0181A06F087
:1016B00049F80746304606F045F80146384606F038
:1016C00049F9002105F08AFF274906F08FF806F056
:1016D00053FA20602EE0AB4215D1401A06F032F8E2
:1016E0000746304606F02EF80146384606F032F935
:1016F0004FF0804105F072FF1B4906F077F806F0C5
:101700003BFA206016E0A84214D1C81A06F01AF875
:101710000746304606F016F80146384606F01AF934
:101720004FF0814105F05AFF0F4906F05FF806F0CF
:1017300023FA2060284606F005F80546304605F0F5
:10174000FDFF294606F006F9094906F04FF806F0B4
:1017500039FA20712846074906F0FCF806F032FAFB
:1017600060712046F8BD00BF000070420000B44325
:101770000000C8423333234030B583B00446684686
:1017800021462246FFF75CFF231D9DE8030083E806
:1017900003000123637303B030BD00BF10B50446DE
:1017A000437B0BB9FFF7E8FF606810BD10B5044636
:1017B000437B0BB9FFF7E0FF207A10BD10B504465C
:1017C000437B0BB9FFF7D8FF607A10BD2DE9F041DC
:1017D0000446884616461D4600F06CF804F158078A
:1017E0003846FFF7F5FA154B23644FF07E536364D8
:1017F000A4F8308066632587089BA364099B636512
:101800000A9BE3640B9B2365002384F83A30384637
:101810000699BDF81C20FFF7DDFA238F5BB1002588
:101820002E46606B2844394600F062FB013678355D
:10183000238FB342F5DC2046BDE8F081CDCC4C3D92
:1018400010B5044601F0ACFAE36BC01A05F076FF60
:10185000034906F07FF8206401F0A2FAE06310BDAE
:1018600000247449F8B504460D46FFF7E9FF0DB1B1
:10187000236D9847238FB3B100252E46676B2F4405
:10188000206C616C05F0B2FF0146384600F08CFB1D
:10189000606B2844A16C626D00F086FC01367835DF
:1018A000238FB342EADC94F83A3013B1204600F0BB
:1018B00049FAF8BD32224260084A82606422C2605E
:1018C0000261074A4261002202764FF08241C16103
:1018D0000449016280F82420704700BFCDCC4C3D04
:1018E000000020419A99993E2DE9F04186B0884642
:1018F00017461E460068FFF773FA98B16C460D9BB9
:1019000044F8043B0EAD95E80F0084E80F00129BED
:1019100005934046394632469DF8303000F0F4FADF
:10192000012000E0002006B0BDE8F081F0B589B0EC
:1019300084460E4696461F464C7954B9104D2B6886
:101940005B6828460F4918229847284602F048F954
:1019500013E09DF8383000930F9B019302AC10AD5B
:1019600095E80F0084E80F00149B0693604631460B
:1019700072463B46FFF7B8FF0446204609B0F0BD6B
:101980003896FF1F1C8600002DE9F04F91B00746E6
:101990000C46164698469DF86890836A0BB1084637
:1019A000984765795DB1614C23685B682046604962
:1019B00017229847204602F013F90025B2E01CA830
:1019C000FFF7ECFE82461CA8FFF7F0FE0246209BC4
:1019D000642BA8BF642323EAE3731CA85146DBB23F
:1019E000FFF744FA9DF8843053B30DF1200A5046B6
:1019F000214600F073FA4FF07E5301931F9B009332
:101A00001CAB0ECB5046FFF7EDFB0DF1300BA3796D
:101A100001220092584600210A46FFF7FDF90DF118
:101A2000040E9BE80F008EE80F00FB6905933B6AEC
:101A300006930B9B00939AE80E00204600F022FAD2
:101A4000217951B9394C23685B68204639492E22E7
:101A50009847204602F0C4F864E0012921D00846E6
:101A6000002952D023681A68B24218BF00250ED14F
:101A700050E053F8042FB24209D101390020C9B215
:101A800002F0E6F9C3B2B5F1FF3F04D10AE0013537
:101A90008542EEDB39E0C0B2A84203DB0133DBB2A2
:101AA00000E00023226852F823607379A3B9CDF8CF
:101AB00000901B9B019302AD1CAB0FCB85E80F0080
:101AC000209B06930123079338463146224643461E
:101AD000FFF75AFF054625E03368D3F804E0CDF858
:101AE00000901B9B019302AD1CAB0FCB85E80F0050
:101AF000209B069338463146744514BF00220122CC
:101B00004346FFF713FF05460CE0002002F0A0F962
:101B1000C3B2C7E701390020C9B202F099F9C3B2D4
:101B20000025B8E7284611B0BDE8F08F3896FF1FB2
:101B300038860000508600002DE9F04395B0044639
:101B40000F469146C36A0BB1084698470DF120082D
:101B5000002500954046FF210A460B46FFF75CF939
:101B60000CAE0095304629462A462B46FFF754F91D
:101B70000DF1040E96E80F008EE80F004FF082433F
:101B800005931F4B06930B9B009398E80E00384675
:101B900000F078F9BD710123009310A84946642232
:101BA0001346FFF739F93B7933B32E463B6853F8B8
:101BB0002680D8F800301B68B7EB030918BF4FF038
:101BC0000109E06805F0BEFD8646237E0093636947
:101BD000019302AD0DF1500C1CE90F0085E80F00D8
:101BE00022690692204641464A467346FFF79EFE0A
:101BF00001363B79B342D9DC15B0BDE8F08300BFB4
:101C0000000040402DE9F04389B006460C460846E6
:101C1000FFF702F823681A79012A0AD8464C23688C
:101C20005B682046454915229847204601F0D8FFB9
:101C30007EE0227B82F001021B6853F822506B7910
:101C4000002B58D096F82430002B6CD13A4C2368E6
:101C50005B6820463A4924229847204601F0C0FF9D
:101C600066E004F11400FFF799FD0246304629466C
:101C7000FFF762FF4FF000087368C3EB070CBCF17D
:101C8000000F55DDD4F804E094F8241009B9D4F815
:101C900008E06B79CBB12B68D3F80090D4F80080C2
:101CA00000912369019302AF143494E80F0087E890
:101CB0000F00CDF818C030462946B9EB080218BF0E
:101CC00001227346FFF732FE32E0D4F80090009113
:101CD0002369019302AF143494E80F0087E80F00E2
:101CE000CDF818C0CDF81C80304629464A467346C8
:101CF000FFF74AFE1CE0E76AA87905F023FD80465D
:101D0000384605F01FFDB16805F070FD01464046FC
:101D100005F064FC05F056FFC0B2A8716328A0D896
:101D20004FF00108A8E7D4F82CC04FF00108A9E74C
:101D300009B0BDE8F08300BF3896FF1F8086000021
:101D40009886000070B5064603689A88F2B10024B0
:101D5000254618682044FFF737F888B133681868BB
:101D60002044FEF75DFF58B1336818682044FEF741
:101D700021FF28B13368196830462144FFF742FF3C
:101D80000135336844349A88AA42E2DC70BD00BF52
:101D9000F8B504460E46174600258571C5713030EA
:101DA000FFF736F804F14000FFF732F804F1500075
:101DB000FFF72EF804F16000FFF72AF8A68201234E
:101DC00023731F44BE1BE681A561A5750023E36153
:101DD0006362A3622046F8BD81617047037B1BB13B
:101DE000808A084480B27047036933F81100704755
:101DF00008B500238375303019461A46FFF72EF8D0
:101E000008BD00BF08B5082383753030FF210A469E
:101E10000B46FFF723F808BD84B070B5064605AC45
:101E200084E80E00234607CB30637163B2631B88DE
:101E3000B3872046FFF72CF958B905A8FFF730F90A
:101E400038B905A8FFF734F918B93046FFF7D0FFC5
:101E500014E005A8FFF71CF9FF280DD105A8FFF72E
:101E60001FF9FF2808D105A8FFF722F9FF2803D1A1
:101E70003046FFF7C7FF01E00123B375BDE87040AE
:101E800004B0704784B030B4044603A880E80E0064
:101E90000623A375034607CB20656165A2651B88F1
:101EA000A4F85C3007AB07CB20666166A2661B888E
:101EB000A4F86C30234653F8305F5868996825645D
:101EC0006064A1649B89A4F84C300B9BE3610C9B7C
:101ED00023620023636230BC04B0704710B4044630
:101EE00030310FC984E80F0020465DF8044B70477D
:101EF00001677047426F0AB941677047936A0BB137
:101F00001A46FBE7916270472DE9F04389B0064617
:101F1000894690461C46006FFEF762FF0746C0B137
:101F20000094109B019302AC11AD95E80F0084E87A
:101F30000F0002230693159B0793384631464A4605
:101F40004346FEF7F3FD30463946FFF7D3FF012045
:101F500000E0002009B0BDE8F08300BFF8B50746F7
:101F60000E46446F84B1002520463146FEF7FCFD45
:101F700030B915B9A36A7B6703E0A36AAB6200E0DE
:101F80002546A46A002CEFD1F8BD00BF70B50E46FF
:101F90001546446F3CB1204631462A46FEF748FEBE
:101FA000A46A002CF7D170BD2DE9F04182B004463F
:101FB0000D46FFF7D3FFA37D023B052B00F2AD805A
:101FC000DFE803F00DAB03172F502846E16905F059
:101FD0000DFC0146606A05F001FB60629DE0284649
:101FE000E16905F003FC0146606A05F0F7FA6062FA
:101FF00093E02846E16905F0F9FB616A05F0EEFA25
:1020000060624FF07E5105F0A3FD002800F085804E
:10201000E36D009304F150030ECB2046FFF7FCFE66
:102020007BE0666A30464FF07E5105F087FD08B1CF
:10203000E06900E0206A294605F0D8FB01463046F9
:1020400005F0CCFA60624FF0804105F081FD002878
:1020500063D0E36E009304F160030ECB2046FFF7DC
:10206000DBFE5AE0E669276A3846002105F07AFD72
:10207000E0B14FF07E50616A05F0AEFA014630469D
:1020800005F0B4FB0146384605F0B0FB80464FF042
:102090007E50394605F0A0FA0146304605F0A6FB11
:1020A0000146404605F09AFA06461BE038460021F4
:1020B00005F03AFDB0B13046616A05F097FB07F1D3
:1020C000004105F093FB804638464FF07E5105F005
:1020D00085FA0146304605F089FB0146404605F089
:1020E0007DFA06463046294605F080FB616A05F018
:1020F00075FA054660624FF07E5105F029FD20B962
:102100002846002105F01AFD38B1E36B009304F175
:1021100030030ECB2046FFF77FFE02B0BDE8F08112
:1021200082B070B586B005460AAC84E80C0089B26E
:10213000FFF754FE0446AB69012B1CD002A82146D0
:102140000F9B9847AB6953B94FF07E530193059BA2
:10215000009302AB0ECB0AA8FEF7B2FF0BE0022BF6
:1021600009D14FF07E530193059B009302AB0ECB38
:102170000AA8FFF7C9F80AA8FEF78AFF06460AA8C8
:10218000FEF78EFF05460AA8FEF792FF034620469B
:1021900031462A460E9CA04706B0BDE8704002B00A
:1021A000704700BFFFFFFFFF2DE9F04F9BB0814656
:1021B0008A469346837D092B00F2BC83DFE813F047
:1021C0001D001800E70013000F003C013C01D60180
:1021D0003F000A00C389002B40F0B582F2E2C389B8
:1021E000002B4ED1A6E3C789002F40F07481A1E3F4
:1021F000C389002B40F006819CE38369002B00F02B
:102200009983C389002B00F0958300240D465E4618
:102210000295039609F1380393E803008DE8030063
:1022200009F130030CCB48462146FFF779FF013412
:10223000B9F80E30A342EBDCAA46B3467AE38369D1
:10224000022B00F07783C389002B00F073830024F6
:102250000D465E460295039609F1380393E80300A4
:102260008DE8030009F130030CCB48462146FFF707
:1022700057FF0134B9F80E30A342EBDCAA46B3464F
:1022800058E300240891CDF824B0204605F05AFA0E
:102290008046D9F824504FF07C5105F0A7FA294622
:1022A00005F09CF904F00EFE03F05CFB06460F46B9
:1022B0004046A94905F09AFA80462846A74905F004
:1022C00095FA0146404605F089F904F0FBFD03F05C
:1022D00049FBCDE9060109F130052846FFF75EFA12
:1022E00082462846FFF762FA80462846FFF766FADC
:1022F0000AAD05F027FA8346304639460022984B4E
:1023000004F082FC06460F46DDE906010022944BEC
:1023100004F07AFC02460B463046394604F026FEAD
:102320000022904B04F022FE87A3D3E9002304F09F
:102330001DFE87A3D3E9002304F066FC05F0F8F83E
:102340000146584605F052FA05F03CFCC3B20122A2
:102350000092284651464246FEF75EFD089B0293D6
:10236000099A03920CAB93E803008DE8030095E80B
:102370000C0048462146FFF7D3FE0134B9F80E3071
:10238000A34282DCDDF820A0DDF824B0D2E20AA866
:10239000FEF73EFDB9F80E30002B00F0CB82002492
:1023A0000AAD714F6426204605F0CCF980463846C8
:1023B000D9F8281005F0CEFA0146404605F016FA85
:1023C000D9F8241005F00AF905F0FCFB014628466F
:1023D000324699F82C30FEF749FDCDF808A0CDF82B
:1023E0000CB00CAB93E803008DE8030095E80C00FB
:1023F00048462146FFF794FE0134B9F80E30A34257
:10240000D1DC97E200240D465E460295039609F161
:10241000380393E803008DE8030009F130030CCB87
:1024200048462146FFF77CFE0134B9F80E30A3423E
:10243000EBDCAA46B3467DE2456A28464FF07E5162
:1024400005F07CFB88B101AC09F150030FCB84E8A7
:102450000F000595D9F84C30009309F140030ECBDD
:1024600009F13000FFF7C4F816E009F1300601ACBD
:1024700009F160030FCB84E80F0028464FF07E512E
:1024800005F0AAF80590D9F85C30009309F15003E3
:102490000ECB3046FFF7ACF8B9F80E30002B00F049
:1024A0004982002455465E460295039609F1380399
:1024B00093E803008DE8030009F130030CCB484694
:1024C0002146FFF72DFE0134B9F80E30A342EBDCB4
:1024D000AA46B3462EE2002400F13006B8460F4665
:1024E00001AD09F150030FCB85E80F00204605F040
:1024F00029F9054608F1FF3005F024F90146284680
:1025000005F028FA0590D9F84C30009309F1400302
:102510000ECB3046FFF76CF80297CDF80CB009F1FE
:10252000380393E803008DE8030096E80C00484662
:102530002146FFF7F5FD0134B9F80E80A045CFDC48
:10254000BA46F7E1AFF30080000000606666E63F40
:10255000000000403333D33F9A99993E9A9999BF2E
:102560000000F03F0000D03F000020414FF0010686
:10257000C069002105F0F6FA08B94FF00006F6B27E
:10258000D9F82840B9F80E0005F0DCF8214605F02E
:1025900025F8D9F8241005F029F90746214605F059
:1025A0001BF806900AA8FEF733FC069805F0E4FA3B
:1025B000044605F0C7F805463846294605F0C8FA2E
:1025C000002850D00DF12808002C41DBB9F80E305E
:1025D000A3423DDD2846069904F0FEFFD9F82810F5
:1025E00005F0B8F90546002105F09EFA40B92846E5
:1025F0004FF07E5105F0B6FA18B14FF07E5500E06D
:1026000000252EB94FF07E50294604F0E5FF05461F
:102610000DF1040E09F140030FCB8EE80F00059574
:10262000D9F83C30009309F130030ECB4046FEF759
:10263000DFFFCDF808A0CDF80CB00CAB93E8030099
:102640008DE8030098E80C0048462146FFF768FD36
:102650000134204605F076F805463846294605F04F
:1026600077FA0028B0D138464FF07E5104F0B6FF1B
:1026700005F082FA0446B9F80E30984228DA554639
:102680005F467EB10295039709F1480393E8030082
:102690008DE8030009F140030CCB48462146FFF7C3
:1026A0003FFD0EE00295039709F1380393E803001C
:1026B0008DE8030009F130030CCB48462146FFF7B3
:1026C0002FFD0134B9F80E30A342DADCAA46BB462E
:1026D00006984FF07E5104F07FFF0546002105F07B
:1026E00041FA002800F026810024574686B102975F
:1026F000CDF80CB009F1380393E803008DE803002E
:1027000009F130030CCB48462146FFF709FD0FE0E5
:102710000297CDF80CB009F1480393E803008DE867
:10272000030009F140030CCB48462146FFF7F8FCB3
:102730000134204605F006F8294605F0F5F9002891
:10274000D4D1BA46F6E0002426464846A1B2FFF7A7
:1027500045FB05460AA82946D847B9F80E10C823F4
:1027600093FBF1F13046023101F072FB07460AA8F3
:10277000FFF724F8874206DD0AA831463246334681
:10278000FEF774FB09E00AA8FFF718F8C31B0AA8B4
:1027900031463246DBB2FEF769FB0AA8FEF778FC49
:1027A00080460AA8FEF77CFC07460AA8FEF780FCD4
:1027B0000346284641463A46D0470134B9F80E3020
:1027C000A342C2DC5C1E012C4BDDDFF87881A5B290
:1027D00048462946FFF702FB06460AA83146D84775
:1027E0006F1EBFB248463946FFF7F8FA01460EA8F9
:1027F000D8470EA8FEF7E2FF48463946FFF7EEFA43
:10280000014612A8D84712A8FEF7D8FF0746A91E0E
:10281000484689B2FFF7E2FA014616A8D84716A83B
:10282000FEF7CCFF07EB400088FB0023A3EBE0732F
:102830000AA800210A46DBB2FEF718FB0AA8FEF739
:1028400027FC07460AA8FEF72BFC05460AA8FEF758
:102850002FFC0346304639462A46D047013C012C1E
:10286000B5D1FF2001F0E8FA4F2829D8072001F060
:10287000E3FA81B24846FFF7B1FA04460AA82146B6
:10288000D8470AA8FEF79AFF05463C20642101F0CC
:10289000DFFA2B180AA800210A46DBB2FEF7E6FA97
:1028A0000AA8FEF7F5FB06460AA8FEF7F9FB05465F
:1028B0000AA8FEF7FDFB0346204631462A46D047CC
:1028C000B9F80E30002B35D00024A0464846A1B2FE
:1028D000FFF784FA05460AA82946D8470AA8FEF752
:1028E0006DFF06461E230093414664226FF00E03DF
:1028F00001F0B8FA3C28B4BF01463C210AA821EAFD
:10290000E17164223346FEF7B1FA0AA8FEF7C0FB74
:1029100007460AA8FEF7C4FB06460AA8FEF7C8FB4E
:102920000346284639463246D0470134B9F80E30BE
:10293000A342CBDC484651465A46FFF727FB1BB063
:10294000BDE8F08F5655555510B50446806808B15E
:1029500005F098F9A07910F0800F02D1002100F065
:10296000CFF9204610BD00BF10B50446807910F0A5
:10297000800F06D1012100F0C3F9A079002100F0F9
:102980009BF90123637010BD70B504460E46806844
:1029900008B105F077F9E57B237B9D4214BF042540
:1029A000032506FB05F5ADB2A580284605F062F9C2
:1029B000A06028B100212A4605F008FC668070BDA1
:1029C0000023A380638070BD38B50346C07B1A7BAB
:1029D000904214BF00250125C1F38110D873C1F3C3
:1029E00001121A73C1F381045C7301F003049C7338
:1029F000FF298CBF002101211970996849B19042CB
:102A000014BF00220122AA4203D018465988FFF7BA
:102A1000BBFF38BD2DE9F04704468368002B7ED00C
:102A200000F0BEF92369C01A3128F9D972B6A76837
:102A3000B4F804E0BE4494F906203A4B53F832004F
:102A4000394B1A6842F080721A60384B1A6842F0AB
:102A500001021A6023787BB3354B1B6878337745C6
:102A600024D24FF0080A4FF08009314A4FF0010C90
:102A700017F8018B56464D461168C91A7729FBD9BC
:102A8000136880F880C015EA080F04D01168C91ACD
:102A90004B29FBD903E01168C91A1729FBD980F823
:102AA00000C16D08013EE7D17745E1D120490A68B0
:102AB000D21A772AFBD92EE01D4B1B68F0337745DD
:102AC00024D24FF0080A4FF08009194A4FF0010C48
:102AD00017F8018B56464D461168C91AEF29FBD9E4
:102AE000136880F880C015EA080F04D01168C91A6D
:102AF0007229FBD903E01168C91A2F29FBD980F884
:102B000000C16D08013EE7D17745E1D108490A6867
:102B1000D21AEF2AFBD962B600F042F92061BDE873
:102B2000F08700BFC0860000FCED00E0001000E070
:102B3000041000E038B504460D46437833B180797F
:102B400010F0800F02D1002100F0DAF8A57163784F
:102B50003BB12846012100F0D3F82846002100F0BF
:102B6000ABF838BDF8B504460F461646002545704B
:102B7000C571856005611946FFF726FF2046394675
:102B8000FFF702FF20463146FFF7D4FF2046F8BD8D
:102B900070B49DF80C4045888D421ED9C57945B169
:102BA00005FB02F2120A03FB05F31B0A04FB05F402
:102BB000240AC57B067BAE4204D101EB4101856846
:102BC000294404E0866806EB810100264E55057B0A
:102BD0004A55427B8B54837BCC5470BC704700BFFA
:102BE00030B443888B4253D9C37B027B934224D1B8
:102BF00001EB410182681144C2799AB1CC5C240294
:102C0000B4FBF2F4437BCB5C1B02B3FBF2F31B027D
:102C100043EA0443807B085C0002B0FBF2F243EA23
:102C2000020036E0CB5C427B8A5C120242EA03423D
:102C3000837BCB5C42EA03002BE0846804EB8101D8
:102C4000C479C4B1CD5C2D02B5FBF4F58B5C1B02DD
:102C5000B3FBF4F31B0443EA0563827B8A5C120234
:102C6000B2FBF4F21343427B885C0002B0FBF4F049
:102C700043EA00200DE0CC5C8B5C1B0443EA046358
:102C8000827B8A5C1343427B885C43EA002000E03D
:102C9000002030BC704700BF044B00221A6004497A
:102CA0000A60044A106010221A60704714D0034072
:102CB00004D0034000D0034021281ED80F4B53F806
:102CC000303093F8802212F0FF0F08D019B10122A2
:102CD00083F880207047012283F800217047074B5A
:102CE00003EBC000436821B11A6842F003021A6086
:102CF00070471A6822F002021A607047C08600000E
:102D000021284AD8254B03EBC0035B68012911D069
:102D100004291DD0214A52F83020002082F8800278
:102D200000292FD0022931D003291FD040F20312ED
:102D30001A607047194A52F83020012182F8801237
:102D40004FF4A2721A601A6822F020021A607047CB
:102D5000124A52F83020012182F880124FF4A272F8
:102D60001A601A6842F020021A6070474FF48072AD
:102D70001A601A6842F002021A601A6822F0010210
:102D80001A6070474FF480721A6070474FF4807277
:102D90001A601A6842F003021A607047C086000089
:102DA00072B60C4B1B680C4A12680C49096862B673
:102DB00011F0806F02D0322B88BF0132C3F5BB33D4
:102DC000FF330749A1FB03039B094FF47A7000FB13
:102DD0000230704718E000E03C95FF1F04ED00E072
:102DE000ABAAAAAA38B50546FFF7DAFF044625B90B
:102DF00038BD013D0AD004F57A74FFF7D1FF001BFE
:102E0000B0F57A7FF5D201F073F8F6E738BD00BF70
:102E100010B5264B4FF400021A604FF080721A6012
:102E20004FF000721A604FF080621A604FF000623B
:102E30001A6000201E4B18604BF6FF7104331960B6
:102E400028231C4A136008321360083213600832CA
:102E500013600832136008321360083213600832BE
:102E600013600922144C226004F58054043420605D
:102E7000043421600434236008342360143C22604D
:102E800004F5FE24043420600C4801600C490B60FA
:102E900008310B600B4B1A6001F04CF84FF4C8700E
:102EA000FFF7A0FF00F0B8FC10BD00BF08E100E094
:102EB000048003400C8003400080034008800B40E6
:102EC0000C800B4000800B4021282CD8184B195C3B
:102ED000FF292AD0174B03EBC000436800221A6079
:102EE000154B186840F020001860144B1A60012040
:102EF0008840134A10601348043A1060124A1A605E
:102F00004FF4A073013B7FF4FDAF0C4A136813F438
:102F1000007FFBD12023013B7FF4FDAF0B4B33F847
:102F2000110080B27047002070470020704700BF3A
:102F3000D0870000C0860000388004400050044064
:102F4000085004400000020380014A000051044080
:102F500030B40E4B1B7843F002020D4C04EBC2045C
:102F600060600C48007800280CBF8824C82444EA1C
:102F70000141074D45F8321080F00100054A1070FC
:102F800083F00103014A137030BC7047A895FF1FFE
:102F90000080FF1F2196FF1F10B4431E032B11D882
:102FA00072B60A4A52F8230050B14268074941F804
:102FB0002320074A32F813400188611A22F81310BF
:102FC00062B600E000205DF8044B70479895FF1F43
:102FD0004098FF1F013803280DD872B6074B53F8ED
:102FE00020302BB1002001305B68002BFBD100E0CA
:102FF000002062B670470020704700BFEC95FF1FAD
:1030000038B572B601231B491B4C5A1812F8012C13
:1030100012F0080F24D09A0054F832506DB9164BB4
:1030200003EBC20108304860144943F83210144BD6
:103030001A78013A1A7062B638BD42F0010254F8AB
:1030400032506DB90C4B03EBC201083048600D499A
:1030500043F832100A4B1A78013A1A7062B638BD3A
:103060000133052BD1D162B60022054B1A7000F056
:1030700037FC38BD208800000080FF1F880040001A
:103080001696FF1FC800400010B4431E032B37D80C
:10309000400140F010001C4A104472B61B4AD25C3A
:1030A000032A09D8DFE802F019021B0508300222C2
:1030B00016E00830042213E0154A52F823201AB90A
:1030C000134A42F8231003E0124A52F823205160B9
:1030D000104A42F8231062B612E0032200E00522F3
:1030E0000A4CE25401F10803436000F00803002B8E
:1030F0000CBF8823C8230A8843EA0243036062B6F0
:103100005DF8044B704700BF0080FF1F5495FF1F00
:10311000EC95FF1FFC95FF1F2DE9F84FA34CDFF83E
:10312000E092DFF8E0A2DFF8E0B22578EDB215F02A
:10313000040F1DD09E4B1B7813F0FF0F16D09D4B34
:103140001B7803F0FF022BB1531EDBB2994A1370B8
:1031500003B900BE984B1B7803F0FF0233B1531E36
:10316000DBB2954A13700BB900F016FD04232370EF
:1031700015F0080F00F0E48299F80030DBB21D0969
:1031800040F021828D4D9E0805EBC6035A6855F824
:103190003630C3F38303013B0C2B00F21082DFE8CF
:1031A00013F0CB01CB010E020E020E020E020E0234
:1031B0000E02E8010E020E020E020D008049136895
:1031C0000B6052684A607F4A45F8362000227E49EB
:1031D0000A607A490A618A6101217C4A11709BB2B6
:1031E00040F28162934218D8B3F5D06F2ED2B3F576
:1031F000817F00F01E8106D8802B00F0C980822BD1
:1032000000F0CC8066E140F20232934200F0268169
:10321000B3F5A06F00F062815CE142F221029342BB
:1032200000F0868107D8B3F5086F00F0AB80B3F5E6
:10323000106F11D04EE142F22122934200F0418101
:1032400042F22132934200F0498143E1604B5D68D4
:10325000002D40F0188130E1594B9A78544B1A7088
:10326000564D05F180062B6A13F0800F03D0686A73
:10327000083800F035FB0835B542F4D1DFF88C8111
:1032800000263746534AB05828B1456800F028FB5D
:103290000DB12846F9E700234E4973504E4AB3500A
:1032A0004E4BF05828B1456800F01AFB0DB1284686
:1032B000F9E7002349497350494AB35028F8023FBF
:1032C000484BFB5C023B032B0AD8DFE803F0020605
:1032D00002060022434BDA5502E00122414BDA5547
:1032E00001370436102ECDD100223F4B1A70012534
:1032F0003E4EDFF81C81314F05EB080313F8013C0B
:1033000006F8043B13F0080F2DD000F0C9FA48B1BD
:10331000A90007EB451200F108035360344A47F84F
:10332000312007E0AB00002247F833202E4B1A78FB
:1033300001321A7000F0B4FA58B1AB0043F0010347
:1033400007EBC30100F108024A601E4A47F8332028
:1033500009E0AB0043F00103002247F83320224B81
:103360001A7801321A70AA0042F00201002347F8CD
:10337000313042F0030247F8323001351D4B9E4296
:10338000BAD11EE20A4B1B781B4D2B700127AAE015
:10339000194D00232B706B700227A4E0084B9B880B
:1033A000042B37D90F22154B1A70C1E0802007403B
:1033B0002096FF1FA995FF1F2296FF1F0080FF1F69
:1033C0000C96FF1FC80040004095FF1F2196FF1F6D
:1033D000248800009895FF1F4495FF1FEC95FF1F60
:1033E000FC95FF1F5495FF1F1696FF1FC420074032
:1033F00088004000D42007401896FF1FC0200740D7
:103400009020074094200740982007403E98FF1FD7
:1034100020880000A04A0021117051709F4A12F8C4
:10342000233013F0020F5CD09B4D01232B70022739
:1034300059E09B4B9B8803F07F03042B02DC984AE6
:1034400052881AB10F22954B1A7071E0934A12F804
:10345000231021F0020102F82310B2E1904B9B8867
:1034600003F07F03042B02DC8D4A52881AB10F222D
:103470008A4B1A705CE0894A12F8231041F002016D
:1034800002F823109DE1864B5E889F88854BA3F14F
:103490000C02114633F80C0CB04209D133F80A0C77
:1034A000B84205D1360A032E0CBF2F7817891AE0CF
:1034B0000D690C330C32002DEBD10F22774B1A70B3
:1034C00036E0794B1A68794B1A60754B9A78784BCD
:1034D0001A7076E10F22714B1A7029E000273D46E1
:1034E00001E002276C4D6E4BDB889F4228BF1F46D0
:1034F000402F34BF3E46402628463146FFF728FD80
:103500003544BF1B03D13F2E00F2608110E0402FF5
:1035100034BF3E46402628463146FFF719FD354464
:10352000BF1B01D13F2E03D9624B1D60624B1F8030
:1035300001238AF8003042E0594B198842F22103F6
:10354000994212D15D4BD81D12F8011B03F8011FDF
:103550008342F9D15A4B1B68862B02D10F22594B5B
:103560001A7000200146FFF7F3FC574B45F8363040
:1035700025E0504B1E68BEB14F4FB7F80080B8F140
:10358000400F34BF4546402530462946FFF7E0FC52
:10359000C5EB08039BB23B800BB9402D01D13544EC
:1035A00000E00025434B1D603D4B1B88B3F5A06F29
:1035B00005D13B4B00225A709B788BF800300123D9
:1035C0008AF80030B9E0414E9F0806EBC708D8F8EA
:1035D0000420A2F10800013DEDB213F0080F47D01E
:1035E00000F07EF93A4B53F825304BB35A6838490E
:1035F00041F8252003F10802C8F80420354A525D3D
:10360000032A12D8DFE802F002060A0E0321314A2B
:1036100051550AE002212F4A515506E005212D4A55
:10362000515502E004212B4A515518F0080F0CBFE8
:103630008822C8221B8842EA034346F837307CE0E0
:10364000244B5B5D032B0BD8DFE803F07777020692
:103650000022204B5A5570E001221E4B5A556CE057
:1036600018F0080F0CBF022203221A4B5A5564E0CF
:1036700056F837301B0C22F8083C002B55D000239D
:1036800022F8063C42F8043C134B53F825302BBB80
:10369000114B43F8250025E01896FF1FC020074076
:1036A0000C96FF1F308800003C95FF1F5098FF1FAD
:1036B0003096FF1F4095FF1F1496FF1F4798FF1F6E
:1036C0004898FF1FA995FF1FC80040000080FF1FFA
:1036D000EC95FF1F5495FF1F9895FF1F3F4B53F824
:1036E000253058603D4B43F825003D4B33F815100D
:1036F00032F8082C0A4423F8152000F0D1F860B104
:1037000000F10803C8F8043018F0080F354B364AAA
:1037100008BF134646F837300FE0002346F837302D
:10372000324B1A7801321A7007E018F0080F2D4B4F
:103730002D4A08BF134646F8373008232370F4E4B7
:1037400015F0010F22D02A4902230B700022294BC9
:103750001A70294B24481860284C5C6098602848EF
:10376000D8601A619A610D20264B1870FF232648F5
:1037700003700838037018300270244A13709F22B7
:10378000234B1A7001230B70BDE8F88F15F0800FE2
:1037900005D00D221B4B1A708022403B1A7015F089
:1037A000020F06D0184B1A78D2B21A700222083BC8
:1037B0001A7015F0100F0ED01022164B1A70BDE8BB
:1037C000F88F00200146FFF7C3FBB1E62846002131
:1037D000FFF7BEFBACE6BDE8F88F00BF4495FF1FC6
:1037E0004098FF1FC8004000880040001696FF1F49
:1037F00094200740A895FF1F0080FF1F5895FF1FCA
:10380000AC95FF1FC0200740882007408C20074050
:10381000842007408020074008B501F079FE00238E
:103820001B491A465A50C81842600833882BF9D1F0
:10383000184B1A6842F480221A60154BC3F3072113
:10384000154A1170C3F30741143211701B0E043274
:103850001370FF23343A137008321370783A1370E0
:1038600001238432137000216C3211707C3A137082
:1038700070220A4B1A704FF40072A3F241331A609F
:10388000102203F1C04303F5C8231A7008BD00BF1E
:103890000080FF1F348004409C20074049E400E082
:1038A00072B60D4B1A68B2FA82F30B2B02D962B6CC
:1038B000002070474FF00041D94022EA010206493A
:1038C0000A6062B6054903EBC303DB00C818002297
:1038D000CA504260704700BF8487FF1F0084FF1FEB
:1038E00008B50F4BC31A0F4AA2FB03131B090B2B7E
:1038F00014D80D4A12783AB10C4A127812F0FF0F20
:1039000002D0FFF77DFB08BD72B6094A4FF00041B7
:1039100021FA03F311681943116062B608BD00BFB4
:103920000084FF1F398EE3381696FF1F2096FF1F75
:103930008487FF1F10B5134B1B6853B9124B1B78BC
:1039400013F0FF0F18D00320FFF726FB0D4B186074
:10395000A8B10C4B186843885A1C03441C7A03888E
:103960009A4206D3FFF7BCFF0022064B1A6020469E
:1039700010BD4280204610BD4FF0FF3010BD4FF00B
:10398000FF3010BD2C96FF1F2096FF1F08B50D4B72
:103990001B6883B90C4B1B7813F0FF0F08D0032072
:1039A000FFF7FAFA074B186028B94FF0FF3008BD4F
:1039B0004FF0FF3008BD034B1B685A881344187A38
:1039C00008BD00BF2C96FF1F2096FF1F044B988850
:1039D000044B1B681BB11A885B88D31A18447047C4
:1039E0004098FF1F2C96FF1F10B50B4B1B7813F050
:1039F000FF0F0FD0094B186820B1FFF771FF0022AD
:103A0000064B1A6003242046FFF7C6FA10B1FFF7F1
:103A100067FFF8E710BD00BF2096FF1F2C96FF1F21
:103A20002DE9F04704460122374B1A700E46002953
:103A300064D0DFF8E080DFF8E0909A46334FD8F8A2
:103A4000003083BB99F8003013F0FF0F06D100223D
:103A50002D4B1A704FF0FF30BDE8F0874AF2F92580
:103A60000420FFF7B7FA07280AD801238AF80030A4
:103A7000FFF716FFC8F80000A8B900238AF8003045
:103A8000013D01D03B7833B10122204B1A704FF039
:103A9000FF30BDE8F08700F02BFA99F8003013F002
:103AA000FF0FDDD1D3E700233B70D8F800104A8820
:103AB000C2F14005AE4238BF354602F108030B445F
:103AC0002A444A80761B3DB1254414F8012B03F8A3
:103AD000012BAC42F9D100E025464B883F2B07D99A
:103AE00040230B800420FFF7CFFA0023C8F80030F2
:103AF0000522074B1A700EB12C46A0E70020024B9E
:103B00001870BDE8F08700BF2396FF1F2896FF1F9F
:103B10002296FF1F2496FF1F2096FF1F00B583B03B
:103B200002AB03F8010D18460121FFF779FF03B03E
:103B30005DF804FB10B5144B1B7813F0FF0F21D078
:103B40000122124B1A70124B196851B10024114B0B
:103B50001C704B880B800420FFF796FA0C4B1C60FE
:103B60000DE0FFF79DFE014630B10022094B1A70AF
:103B70000420FFF789FA02E00122064B1A700022A6
:103B8000024B1A7010BD00BF2096FF1F2396FF1F27
:103B90002496FF1F2296FF1F08B50E4B1B7813F0CB
:103BA000FF0F16D10C4B196841B14B880B800420D4
:103BB000FFF76AFA0022084B1A6008BDFFF770FE93
:103BC000014618B10420FFF75FFA08BD0122034B3C
:103BD0001A7008BD2396FF1F2496FF1F2296FF1F11
:103BE00000B583B0054B1B88ADF8043003685B68F3
:103BF00001A90222984703B05DF804FBF487000096
:103C0000F0B58BB0164622B903681B68C9B2984755
:103C10002FE0012A08BF0A2621B930228DF825207D
:103C2000212417E021243746B1FBF6F506FB1515D4
:103C3000EDB22246092D94BF30353735EDB20DF186
:103C4000280E724402F8245CB1FBF7F111B1013C7B
:103C5000E4B2E9E733B1013CE4B20AAB23442D22DC
:103C600003F8242C03685B6801A92144C4F12202F3
:103C700098470BB0F0BD00BF08B50029BABF494254
:103C80002D2300230A22FFF7BBFF08BDFFFFFFFF24
:103C90002DE9F04F87B0814616461F469DF84080BB
:103CA000104619460022002303F0D2FB28B107F189
:103CB00000431F464FF0010A01E04FF0000AB8F13F
:103CC000000F6ED04FF0000B0022414B3EA5D5E90E
:103CD00000451046194622462B4603F047F9024696
:103CE0000B460BF1010B5FFA8BF18845F1D82AE006
:103CF0003E462046294652465B4603F037F90446C5
:103D00000D4603F0F5FBC0B2771CFFB206AB1E44B4
:103D100000F1300306F8103C03F0C2F802460B46EF
:103D20002046294602F06EFF04460D464745DFD186
:103D300001E04FF00108D9F800305B68484602A95D
:103D4000424698473CE03046394602F05DFF044663
:103D50000D4603F0CDFB064603F092F802460B46F3
:103D60002046294602F04EFF04460D46484631469D
:103D70000A225346FFF744FF01902E238DF80830A6
:103D8000B8F10F0F34BF43460F23002BD1D003F1FE
:103D900001085FFA88F801264FF0000ADFF834B016
:103DA000A7E7304639460022094B02F02DFF03F009
:103DB0009FFB014648460A225346FFF721FF019028
:103DC000019807B0BDE8F08F000000A09999B93FB5
:103DD0000000E03F0000244010B4124B1968D9B134
:103DE000114C81FB0423CA18CB17C3EB22420F48A6
:103DF00000FB121284FB01042144C3EB21430C4855
:103E000000FB03F344F2A71000FB0230002804DAA1
:103E100000F10040013800E00648024B18605DF8F0
:103E2000044B70473496FF1F5F0B4E831DF3010058
:103E3000ECF4FFFF42CE0C1F10B5044630B1FFF783
:103E4000CBFFB0FBF4F303FB140010BD002010BD4A
:103E500010B50446884204DA081AFFF7EDFF204443
:103E600010BD10BD10B4401A019CE41A04FB00F40C
:103E7000521A94FBF2F018445DF8044B704700BFEF
:103E800008B5FCF7A9FCFCF759FD00F031F8FAE79A
:103E900008B5FFF79BFD08BD08B5FFF74BFD08BD52
:103EA00008B5FFF773FD08BD08B5FFF743FE08BD71
:103EB00008B5FFF799FD08BD08B50846FFF72EFEC7
:103EC00008BD00BF08B508461146FFF7A9FD08BDAB
:103ED000704700BF044B00221A714FF47A71996049
:103EE0001A73024A1A6070473896FF1F0088000054
:103EF00008B50F4B1B78CBB901220D4B1A70FFF799
:103F000065FD08B1FFF7E4FF00F094FB08B101F094
:103F1000D5FB00F041FF08B101F072FC01F00EFA90
:103F200008B101F00FFD0022014B1A7008BD00BF5F
:103F30004896FF1F60223A4B1A70E12201331A7033
:103F4000384B1B78082B10D1012203F1804303F575
:103F50006C331A60132334490B6001F5FF2101F221
:103F6000FC710A60314A13601FE00A2B0DD139221F
:103F70002F4B1A6013232C490B6001F5FF2101F22E
:103F8000FC710A60294A13600FE00C2B0CBF35222C
:103F90003D22274B1A60122323490B6001F5FF21B4
:103FA00001F2FC710A60214A1360224B1B7833B185
:103FB0000123214A136002F50022136005E000236B
:103FC0001D4A136002F5002213601C4B1B78012B65
:103FD00006D880231A4A136002F5002213601AE003
:103FE000042B06D88423164A136002F500221360BE
:103FF00011E0082B06D88523114A136002F5002230
:10400000136008E0102B94BF862387230C4A1360AB
:1040100002F50022136001220A4B1A70704700BF9C
:10402000004007408887FF1F0CB003400CB00B40D6
:1040300008B003404A96FF1F20B003408987FF1F46
:1040400024B003404996FF1F024B1A6801321A60E0
:10405000704700BF3C95FF1F08B50D4C236813F453
:10406000802F01D0FFF758F8236813F4806F01D038
:1040700000F06AFB236813F4006F01D000F016FF14
:10408000236813F4805FE9D001F0CEF9E6E700BFC2
:104090003480044008B5FFF7DFFF00BF1022014B5A
:1040A0001A80704700200540704700BF024A13681D
:1040B00018441060184670478C87FF1FEFF3138376
:1040C000ABB9EFF31083ABB9EFF3058323B10F2B3B
:1040D00005D9094A985C03E04FF4807000E00020A5
:1040E000EFF311833BB1834238BF184670474FF05E
:1040F000FF30704700207047F0E300E030B4002349
:10410000B0FBF2F402FB14041D46092C94BF3034BA
:104110003734E4B2CC54B0FBF2F008B10133EFE72E
:104120000D4400226A70934207DD885CCC5C8C549D
:10413000C8540132013B9A42F7DB084630BC704755
:10414000254B1A6842F480621A600023234A1370D8
:10415000234A1370234A1370234A1370234A13709F
:10416000234B1B7813B1152B05D008E040F2133216
:10417000204B1A6003E040F213321F4B1A601F4BB2
:104180001B78012B02D0052B05D008E04FF45172AB
:104190001B4B1A6003E04FF451721A4B1A60C0F3C4
:1041A0004432194B1A70C0F347125A7000F01F00C6
:1041B000987204229A700221D9745A7588221A744E
:1041C0003C22DA704022114B1A704FF40052A3F2D5
:1041D00029331A60704700BF34800440D896FF1F0F
:1041E0005196FF1FE096FF1FD996FF1F5096FF1FA5
:1041F0009496FF1F40A0044018C004409087FF1F02
:1042000044A004401CC0044000A006402DE400E08F
:10421000164B9B7803F0EC0300F00302134310F0FD
:10422000040F18BF43F01003104A937000F00F03FF
:10423000042B04D11346927942F040029A710B4B41
:104240005A7902F0EF0210F0100F18BF42F010027E
:10425000064B5A719B7903F0EF0310F0200F18BF43
:1042600043F01003014A9371704700BF00A006405D
:1042700010B5144B1B6813F4806F21D0124B1B78C0
:1042800013F0FF0F06D0104CFFF732FE237813F027
:10429000FF0FF9D14FF400520C4B1A6000230C4A67
:1042A000D37040F203120B490A6004310A600A4AD3
:1042B00013700A4A13700A4B1B680BB101221A7063
:1042C00010BD00BF348004405096FF1F84E100E021
:1042D00000A0064040A00440D896FF1F5196FF1F43
:1042E0004C96FF1F10B50446094A137813F0FF0FD0
:1042F000FBD120460121FEF703FD20460021FEF7F9
:10430000DBFC044B53F83420034B1A6010BD00BF94
:104310005096FF1FC0860000DC96FF1F10B40C46AD
:1043200009B140F08000184B1B78984228D0174AFA
:10433000126812F4806F21D003F07F03012B02D0AA
:10434000052B04D006E00022114B1A6002E0002287
:10435000104B1A60002C0CBF4422602200F07F0337
:10436000012B02D0052B05D008E042F44072084B27
:104370001A6003E042F44072064B1A60024B187058
:104380005DF8044B704700BF9087FF1F34800440E6
:1043900044A004401CC00440114B1B7898421ED01E
:1043A000104A126812F4806F17D013B1152B04D085
:1043B00006E000220C4B1A6002E000220B4B1A6050
:1043C00010B1152805D008E040F21332064B1A60F0
:1043D00003E040F21332054B1A60014B187070472E
:1043E0009496FF1F3480044040A0044018C004404D
:1043F00010B50D4B1B6813F4806F12D021280CD818
:104400000A4C0B4B53F8303023600121FEF778FC47
:10441000236800221A70012010BD0020034B186091
:1044200010BD002010BD00BF348004404C96FF1F1B
:10443000C0860000114B1B6813F4806F1BD012283C
:1044400004D140F202320E4B1A600DE0142804D160
:1044500040F202320B4B1A6006E00B4B5A7B02F023
:10446000FE025A7300207047074B5A7B42F001024C
:104470005A73012070470020704700BF3480044009
:104480000CA0044014C0044000A006402DE9F041F7
:1044900007461F4B1B6813F4806F37D01D4B1B68FA
:1044A0000BB101221A701C4B1C780134402C28BF20
:1044B00000241A4D1A4EDFF86C8017E0FFF7FEFD5E
:1044C00040280FDC337913F0800F0FD02B780133A5
:1044D000402B28BF002318F80320D2B2F271DBB2C0
:1044E0002B7003E0FF2801DDFFF702FD2B78DBB224
:1044F0009C42E3D0FFB20B4B1F5501220A4B1A70AE
:10450000E4B2054B1C70BC22054BDA70BDE8F081AB
:1045100034800440DC96FF1FE096FF1FD996FF1FF2
:1045200000A006405496FF1F5096FF1F2DE9F84F3C
:104530000746284B1B6813F4806F49D0264B1B6835
:104540000BB101221A7007EB010B5F453DD2DFF87A
:104550009890224EDFF88C80DFF890A099F8004008
:104560000134402C28BF00243578EDB2A54220D17B
:10457000BC2388F80330FFF7A1FD402811DC98F830
:10458000043013F0800F10D033780133402B28BF54
:1045900000231AF80320D2B288F80720DBB2337068
:1045A00003E0FF2801DDFFF7A3FC3378DBB29D4277
:1045B000E1D017F8013B0AF804300122084B1A70C9
:1045C000E4B289F800405F45C8D1BC22054BDA70DF
:1045D000BDE8F88F34800440DC96FF1FD996FF1F9A
:1045E0005096FF1F00A00640E096FF1F5496FF1F45
:1045F00010B5064B1B7813F0FF0F06D0034CFFF7E6
:1046000077FC237813F0FF0FF9D110BD5096FF1FF0
:10461000064B1B78DBB2064A1278D2B293422CBF0B
:104620003F3202F1FF32D01A704700BFE096FF1F01
:10463000D996FF1F054B1878C0B2054B1B78DBB22B
:10464000984238BF4030C01A704700BFD896FF1F4D
:104650005196FF1F10B4184B1A78D2B2174B1B7823
:10466000DBB29A4218D001333F2B18D81449C85CEA
:10467000C0B2DCB211490C7012490968C9B19A4242
:1046800003D300E00023D31A01E04032D31A1A2BDF
:104690000FDC00230B700CE04FF0FF3009E0084BFB
:1046A0001878C0B20021054B1970064B1968002913
:1046B000E8D15DF8044B7047D896FF1F5196FF1F55
:1046C0009896FF1F4C96FF1F094B1A78D2B2094BE0
:1046D0001B78DBB29A4207D00133402B28BF00235E
:1046E000054AD05CC0B270474FF0FF30704700BF42
:1046F000D896FF1F5196FF1F9896FF1F0D4B1B6802
:1047000013F4806F14D00C4BDA7802F0CB02DA701D
:1047100040225A74DA7842F03402DA70074B1A7881
:10472000D2B2074B1A70074B1B680BB100221A70EC
:10473000704700BF3480044000A006405196FF1F20
:10474000D896FF1F4C96FF1F70B43D4B1B7913F09A
:10475000300F33D072B63A4B9B7D03F0FF022BB97A
:10476000374BDA7940225A7462B627E062B6354B8D
:104770001978C9B2344B1C78E4B2314D334EEB7921
:10478000D8B24B1C402B28BF0023A3421CBFF054BF
:104790001946531E13F0FF02F1D1CAB2294B1A7009
:1047A0002B4B1B6853B1A1422EBFC4EB0101C4F1D6
:1047B000400409192729C4BF01221A70204BDA7856
:1047C000D2B212F0800F27D01B7913F0800F23D0C4
:1047D000204B1C78E4B2204B1B78DBB29C4210D0FB
:1047E00017491E4D01E0A3420BD00133402B28BFD7
:1047F00000230879E85CC0B2C871087DC0B2072800
:10480000F1D9DBB214490B700D4B1B7913F0800FFB
:1048100002D07C210A4BD97012F0400F0ED0084B09
:104820001B7913F0400F09D000220D4B1A700D4B6D
:104830001B6803B11A703C22014BDA7070BC7047E0
:1048400000A00640D896FF1F5196FF1F9896FF1FA5
:104850004C96FF1FE096FF1FD996FF1F5496FF1F2F
:104860005096FF1FDC96FF1F254B1A6842F400622A
:104870001A600023234A1370234A1370234A1370CB
:10488000234A1370234A1370234B1B78092B02D041
:104890001A2B05D008E040F21332204B1A6003E0D7
:1048A00040F213321E4B1A601E4B1B780A2B02D0AB
:1048B0001F2B05D008E04FF451721B4B1A6003E028
:1048C0004FF45172194B1A60C0F34432184B1A70EE
:1048D000C0F347125A7000F01F00987204229A70B9
:1048E0000221D9745A7588221A743C22DA70402247
:1048F000104B1A704FF40042A3F22B331A6070472A
:10490000348004405497FF1FE996FF1F5C97FF1FF8
:104910005597FF1FE896FF1F9187FF1F0CB00440BB
:1049200004D004409287FF1F10B0044000D0044020
:1049300000B006402FE400E0164B9B7803F0EC0338
:1049400000F00302134310F0040F18BF43F01003EC
:10495000104A937000F00F03042B04D11346927990
:1049600042F040029A710B4B5A7902F0EF0210F0BC
:10497000100F18BF42F01002064B5A719B7903F0DA
:10498000EF0310F0200F18BF43F01003014A93719A
:10499000704700BF00B0064010B5224B1B6813F4EF
:1049A000006F3ED0204B1B7813F0FF0F06D01E4C3B
:1049B000FFF79EFA237813F0FF0FF9D14FF400426E
:1049C0001A4B1A6000221A4BDA701A4B1B78092B0B
:1049D00002D01A2B05D008E040F20312164B1A60E1
:1049E00003E040F20312154B1A60154B1B7803F0DD
:1049F0007F030A2B02D01F2B05D008E040F20312E0
:104A0000104B1A6003E040F203120F4B1A600023B0
:104A10000E4A13700E4A13700E4B1B680BB1012225
:104A20001A7010BD34800440E896FF1F84E100E056
:104A300000B006409187FF1F0CB0044004D0044032
:104A40009287FF1F10B0044000D004405497FF1F0E
:104A5000E996FF1FE496FF1F10B50446094A137834
:104A600013F0FF0FFBD120460121FEF749F9204644
:104A70000021FEF721F9044B53F83420034B1A6050
:104A800010BD00BFE896FF1FC08600005897FF1FAB
:104A900010B40C4609B140F08000184B1B789842C6
:104AA00028D0174A126812F4006F21D003F07F0358
:104AB0000A2B02D01F2B04D006E00022114B1A60F3
:104AC00002E00022104B1A60002C0CBF442260222E
:104AD00000F07F030A2B02D01F2B05D008E042F420
:104AE0004072084B1A6003E042F44072064B1A60B1
:104AF000024B18705DF8044B704700BF9287FF1F90
:104B00003480044010B0044000D00440124B1B78A5
:104B1000984220D0114A126812F4006F19D0092B64
:104B200002D01A2B04D006E000220D4B1A6002E0DE
:104B300000220C4B1A60092802D01A2805D008E080
:104B400040F21332064B1A6003E040F21332054B79
:104B50001A60014B187070479187FF1F3480044022
:104B60000CB0044004D0044010B50D4B1B6813F486
:104B7000006F12D021280CD80A4C0B4B53F8303060
:104B800023600121FEF7BCF8236800221A7001207F
:104B900010BD0020034B186010BD002010BD00BFE9
:104BA00034800440E496FF1FC08600000D4B1B6854
:104BB00013F4006F13D017280AD140F202320A4BC7
:104BC0001A600A4B5A7B42F001025A730120704767
:104BD000064B5A7B02F0FE025A73002070470020F9
:104BE000704700BF3480044008B0044000B0064065
:104BF0002DE9F04107461F4B1B6813F4006F37D0B7
:104C00001D4B1B680BB101221A701C4B1C78013420
:104C1000282C28BF00241A4D1A4EDFF86C8017E0AC
:104C2000FFF74CFA40280FDC337913F0800F0FD0D8
:104C30002B780133282B28BF002318F80320D2B289
:104C4000F271DBB22B7003E0FF2801DDFFF750F9B2
:104C50002B78DBB29C42E3D0FFB20B4B1F550122F5
:104C60000A4B1A70E4B2054B1C70BC22054BDA707B
:104C7000BDE8F081348004405897FF1F5C97FF1F08
:104C80005597FF1F00B00640EC96FF1FE896FF1FE8
:104C90002DE9F84F0746284B1B6813F4006F49D0E5
:104CA000264B1B680BB101221A7007EB010B5F4505
:104CB0003DD2DFF89890224EDFF88C80DFF890A08C
:104CC00099F800400134282C28BF00243578EDB233
:104CD000A54220D1BC2388F80330FFF7EFF9402824
:104CE00011DC98F8043013F0800F10D033780133C2
:104CF000282B28BF00231AF80320D2B288F80720F7
:104D0000DBB2337003E0FF2801DDFFF7F1F8337801
:104D1000DBB29D42E1D017F8013B0AF804300122D2
:104D2000084B1A70E4B289F800405F45C8D1BC2234
:104D3000054BDA70BDE8F88F348004405897FF1FA8
:104D40005597FF1FE896FF1F00B006405C97FF1FB6
:104D5000EC96FF1F10B5064B1B7813F0FF0F06D023
:104D6000034CFFF7C5F8237813F0FF0FF9D110BDFE
:104D7000E896FF1F064B1B78DBB2064A1278D2B2C8
:104D800093422CBF273202F1FF32D01A704700BF86
:104D90005C97FF1F5597FF1F054B1878C0B2054B56
:104DA0001B78DBB2984238BF4030C01A704700BF52
:104DB0005497FF1FE996FF1F10B4184B1A78D2B210
:104DC000174B1B78DBB29A4218D001333F2B18D80F
:104DD0001449C85CC0B2DCB211490C7012490968B0
:104DE000C9B19A4203D300E00023D31A01E0403254
:104DF000D31A1A2B0FDC00230B700CE04FF0FF309E
:104E000009E0084B1878C0B20021054B1970064B19
:104E100019680029E8D15DF8044B70475497FF1FCB
:104E2000E996FF1F1497FF1FE496FF1F094B1A789E
:104E3000D2B2094B1B78DBB29A4207D00133402B28
:104E400028BF0023054AD05CC0B270474FF0FF3046
:104E5000704700BF5497FF1FE996FF1F1497FF1F6D
:104E60000D4B1B6813F4006F14D00C4BDA7802F072
:104E7000CB02DA7040225A74DA7842F03402DA70E7
:104E8000074B1A78D2B2074B1A70074B1B680BB14D
:104E900000221A70704700BF3480044000B0064002
:104EA000E996FF1F5497FF1FE496FF1F70B43D4B18
:104EB0001B7913F0300F33D072B63A4B9B7D03F061
:104EC000FF022BB9374BDA7940225A7462B627E0D9
:104ED00062B6354B1978C9B2344B1C78E4B2314D07
:104EE000334EEB79D8B24B1C402B28BF0023A34292
:104EF0001CBFF0541946531E13F0FF02F1D1CAB281
:104F0000294B1A702B4B1B6853B1A1422EBFC4EB27
:104F10000101C4F1400409192729C4BF01221A70F4
:104F2000204BDA78D2B212F0800F27D01B7913F021
:104F3000800F23D0204B1C78E4B2204B1B78DBB2CF
:104F40009C4210D017491E4D01E0A3420BD0013303
:104F5000282B28BF00230879E85CC0B2C871087DFF
:104F6000C0B20728F1D9DBB214490B700D4B1B7985
:104F700013F0800F02D07C210A4BD97012F0400F41
:104F80000ED0084B1B7913F0400F09D000220D4BB7
:104F90001A700D4B1B6803B11A703C22014BDA707A
:104FA00070BC704700B006405497FF1FE996FF1F82
:104FB0001497FF1FE496FF1F5C97FF1F5597FF1F75
:104FC000EC96FF1FE896FF1F5897FF1F174B1A68B4
:104FD00042F480521A600023154A1370154A137068
:104FE000154A1370154A1370154A137040F21331A5
:104FF000144A11604FF4517104321160C0F344310E
:10500000114A1170C0F34711517000F01F009072E7
:10501000937013742C23D37040220C4B1A704FF4EE
:105020000032A3F22D331A60704700BF3480044071
:10503000D097FF1F6597FF1FD897FF1FD197FF1FBE
:105040006497FF1F08C0044000C0064031E400E040
:10505000164B9B7803F0EC0300F00302134310F0AF
:10506000040F18BF43F01003104A937000F00F03B1
:10507000042B04D11346927942F040029A710B4BF3
:105080005A7902F0EF0210F0100F18BF42F0100230
:10509000064B5A719B7903F0EF0310F0200F18BFF5
:1050A00043F01003014A9371704700BF00C00640EF
:1050B00010B5144B1B6813F4805F21D0124B1B7882
:1050C00013F0FF0F06D0104CFEF712FF237813F0F9
:1050D000FF0FF9D14FF400320C4B1A6000230C4A39
:1050E000D37040F203120B490A6004310A600A4A85
:1050F00013700A4A13700A4B1B680BB101221A7015
:1051000010BD00BF348004406497FF1F84E100E0BD
:1051100000C0064008C00440D097FF1F6597FF1FDE
:105120006097FF1F10B50446094A137813F0FF0F6C
:10513000FBD120460121FDF7E3FD20460021FDF7CC
:10514000BBFD044B53F83420034B1A6010BD00BF65
:105150006497FF1FC0860000D497FF1F10B40C4651
:1051600009B140F08000104B1B78984219D00F4ACB
:10517000126812F4805F12D003F07F03082B02D173
:1051800000220B4B1A60002C0CBF4422602200F05E
:105190007F03082B03D142F44072054B1A60024B87
:1051A00018705DF8044B70479387FF1F34800440EC
:1051B0000CC00440704700BF10B50D4B1B6813F4C2
:1051C000805F12D021280CD80A4C0B4B53F830309A
:1051D00023600121FDF794FD236800221A7001204D
:1051E00010BD0020034B186010BD002010BD00BF93
:1051F000348004406097FF1FC08600000D4B1B6881
:1052000013F4805F13D00E280AD140F202320A4B09
:105210001A600A4B5A7B42F001025A730120704710
:10522000064B5A7B02F0FE025A73002070470020A2
:10523000704700BF3480044004C0044000C00640F2
:105240002DE9F04107461F4B1B6813F4805F37D0F0
:105250001D4B1B680BB101221A701C4B1C780134CA
:10526000282C28BF00241A4D1A4EDFF86C8017E056
:10527000FEF724FF40280FDC337913F0800F0FD0A6
:105280002B780133282B28BF002318F80320D2B233
:10529000F271DBB22B7003E0FF2801DDFEF728FE80
:1052A0002B78DBB29C42E3D0FFB20B4B1F5501229F
:1052B0000A4B1A70E4B2054B1C70AC22054BDA7035
:1052C000BDE8F08134800440D497FF1FD897FF1FBA
:1052D000D197FF1F00C006406897FF1F6497FF1F0C
:1052E00038B505460C4629B115F8010BFFF7A8FFA4
:1052F000013CF9D138BD00BF10B5064B1B7813F047
:10530000FF0F06D0034CFEF7F3FD237813F0FF0FD9
:10531000F9D110BD6497FF1F064B1B78DBB2064A1C
:105320001278D2B293422CBF273202F1FF32D01A48
:10533000704700BFD897FF1FD197FF1F054B187804
:10534000C0B2054B1B78DBB2984238BF4030C01A60
:10535000704700BFD097FF1F6597FF1F10B4184B11
:105360001A78D2B2174B1B78DBB29A4218D00133AD
:105370003F2B18D81449C85CC0B2DCB211490C707C
:1053800012490968C9B19A4203D300E00023D31A35
:1053900001E04032D31A1A2B0FDC00230B700CE013
:1053A0004FF0FF3009E0084B1878C0B20021054BE0
:1053B0001970064B19680029E8D15DF8044B704755
:1053C000D097FF1F6597FF1F9097FF1F6097FF1FE4
:1053D000094B1A78D2B2094B1B78DBB29A4207D03C
:1053E0000133402B28BF0023054AD05CC0B2704770
:1053F0004FF0FF30704700BFD097FF1F6597FF1F2A
:105400009097FF1F054B1A78D2B2054B1A70054BC7
:105410001B680BB100221A70704700BF6597FF1F11
:10542000D097FF1F6097FF1F2F4B1B7913F0200FA2
:1054300023D02D4BDB79D9B22C4B1B780133402B79
:1054400028BF00232A4A1278D2B29A4204D0294AAD
:10545000D154D9B2254A1170274A116869B1274A37
:105460001278D2B293422EBFC2EB0303C2F14002C4
:105470009B18272BC4BF01230B701B4BDB78DBB2BF
:1054800013F0800F1CD0184A127912F0800F17D039
:105490001B4A1178C9B2194A1278D2B2914203D18B
:1054A0006C21114AD1700BE00132282A28BF00225A
:1054B0001449885CC0B20C49C871D2B20F490A7055
:1054C00013F0400F0ED0084B1B7913F0400F09D09A
:1054D00000220D4B1A700D4B1B6803B11A702C2261
:1054E000014BDA70704700BF00C00640D097FF1F25
:1054F0006597FF1F9097FF1F6097FF1FD197FF1FB2
:10550000D897FF1F6897FF1F6497FF1FD497FF1F4F
:1055100000B585B072B61B4B70221A7041211A4A31
:1055200011700F21013A117080221A701A461378F7
:1055300013F0800FFBD0154B186862B6144B9842DD
:105540009CBF00EB8000400001A90A22FEF7D6FDB7
:105550009DF804307BB908E001A9595C31B1918014
:10556000023201330A2BF7D100E0002301335B0044
:10557000084A137003E0074A53800123ECE705B0A3
:105580005DF804FB000002400700024008000240F2
:105590007F9698002088FF1F08B503681B68C9B272
:1055A000984708BD08B503681B68C9B2984708BD8D
:1055B00008B503681B68C9B2984708BD08B50368F9
:1055C0001B68C9B2984708BD08B54B0803F137609E
:1055D00000F5D830B0FBF1F0FEF7B2FD08BD00BF1A
:1055E00010B514464B0803F1376000F5D830B0FB16
:1055F000F1F0FEF7A5FD2046FEF70AFE10BD00BF44
:1056000008B5FEF735FE08BD08B50846FEF76AFE88
:1056100008BD00BF08B50846FEF7BEFE08BD00BFC6
:1056200008B508461146FEF779FE08BD08B50846DC
:10563000FEF7DEFE003018BF012008BD08B50846A1
:10564000FEF7F8FE003018BF012008BD08B5FEF7D0
:10565000F1FF08BD08B5FFF737F808BD08B5FEF73C
:10566000F9FF08BD08B5FEF7C3FF08BD08B5FFF791
:1056700045F808BD08B5FEF7CBFF08BD08B50846DC
:10568000FEF704FF012008BD08B50846FEF7FEFE40
:10569000012008BD10B5144608461146FEF746FF26
:1056A000204610BD38B50D46084602F0EFFD044611
:1056B00028462146FEF73AFF204638BD704700BF16
:1056C000044B00221A714FF47A7199601A73024ADE
:1056D0001A607047DC97FF1F8088000008B50368D8
:1056E0001B68C9B2984708BD08B503681B68C9B2F2
:1056F000984708BD08B503681B68C9B2984708BD3C
:1057000008B503681B68C9B2984708BD08B54B08BF
:1057100003F1376000F5D830B0FBF1F0FFF7A4F8E3
:1057200008BD00BF10B514464B0803F1376000F503
:10573000D830B0FBF1F0FFF797F82046FFF7FCF800
:1057400010BD00BF08B5FFF727F908BD08B508462A
:10575000FFF782F908BD00BF08B50846FFF7D6F984
:1057600008BD00BF08B508461146FFF791F908BD0E
:1057700008B50846FFF7F8F9003018BF012008BD4A
:1057800008B50846FFF712FA003018BF012008BD1F
:1057900008B5FFF701FB08BD08B5FFF747FB08BDDB
:1057A00008B5FFF709FB08BD08B5FFF7D3FA08BD38
:1057B00008B5FFF755FB08BD08B5FFF7DBFA08BDD4
:1057C00008B50846FFF714FA012008BD08B50846D9
:1057D000FFF70EFA012008BD10B514460846114621
:1057E000FFF756FA204610BD38B50D46084602F0C0
:1057F0004DFD044628462146FFF74AFA204638BDAB
:10580000704700BF044B00221A714FF47A719960FF
:105810001A73024A1A607047EC97FF1FE088000075
:1058200008B503681B68C9B2984708BD08B5036886
:105830001B68C9B2984708BD08B503681B68C9B2A0
:10584000984708BD08B503681B68C9B2984708BDEA
:1058500008B54B0803F1B76000F55840B0FBF1F014
:10586000FFF7B4FB08BD00BF10B514464B0803F1A9
:10587000B76000F55840B0FBF1F0FFF7A7FB2046FA
:10588000FFF7E6FB10BD00BF08B5FFF711FC08BD30
:1058900008B50846FFF746FC08BD00BF08B5084636
:1058A000FFF788FC08BD00BF08B508461146FFF7A2
:1058B00055FC08BD08B50846FFF77EFC003018BF50
:1058C000012008BD08B50846FFF798FC003018BF56
:1058D000012008BD08B5FFF731FD08BD08B5FFF789
:1058E00077FD08BD08B5FFF739FD08BD08B5FFF71E
:1058F00003FD08BD08B5FFF785FD08BD08B5FFF736
:105900000BFD08BD08B50846FFF79AFC012008BD4D
:1059100008B50846FFF794FC012008BD10B51446F1
:1059200008461146FFF7DCFC204610BD38B50D4691
:10593000084602F0ABFC044628462146FFF7D0FC9F
:10594000204638BD704700BF044B00221A714FF447
:105950007A7199601A73024A1A607047FC97FF1FA8
:105960004089000070B5224E21F00044B44286B058
:1059700002460B461ADD1F4DAC4203DD01F042F931
:1059800006B070BD02AA00F037F800F0030001284D
:105990001DD0022812D008B3DDE90201DDE904239D
:1059A00000F04AFA01F1004106B070BD00230093F7
:1059B0000022002300F040FF06B070BD0124DDE9A5
:1059C0000201DDE90423009400F036FFEAE7DDE997
:1059D0000201DDE9042300F02FFAD1E70124DDE91B
:1059E0000201DDE90423009400F026FFC8E700BFB0
:1059F000FB21E93FFFFFEF7F2DE9F04F964B21F0B0
:105A000000469E4291B004460D468B46904640F3B8
:105A10008180924B9E4226DC002985A3D3E9002396
:105A200040F3A08101F0EEF88D4B9E4204460D46F6
:105A300000F0858080A3D3E9002301F0E3F802465B
:105A40000B46C8E900232046294601F0DBF87AA37B
:105A5000D3E9002301F0D6F80127C8E9020138464E
:105A600011B0BDE8F08F7F4B9E4240F385807E4BA6
:105A70009E425ADC4FEA2659A9F21649A6EB09556F
:105A80002946044601F00CFD01F00AFA06460F46CD
:105A900002460B4620462946CDE90A6701F0B2F8D6
:105AA0000022724B01F062FA0F46064601F0F8FC44
:105AB00001F0F6F902460B4604460D4630463946DB
:105AC000CDE90C4501F09EF80022684B01F04EFA3A
:105AD00000220023CDE90E0101F0B0FC002800F007
